S02400002E2E2F48414E636F6465725F4F6C696D6578696E6F5F46335F4143432E7372656380
S315080000004C430020F9E10008000000000000000051
S3150800001000000000000000000000000000000000D2
S3150800002000000000000000000000000079BC000885
S31508000030000000000000000051BD0008B1BD000826
S3150800004000000000000000000000000000000000A2
S315080000500000000000000000000000000000000092
S315080000600000000000000000000000000000000082
S315080000700000000000000000000000000000000072
S31508000080000000000000000000000000A19E00081B
S31508000090F9CC00084D9D0008859F00080000000067
S315080000A000000000E5CC000800000000D5CC0008E0
S315080000B0C1CC0008ADCC000899CC000800000000AF
S315080000C00000000000000000000000000000000022
S315080000D00000000071DE000889DE0008A1DE0008C5
S315080000E00000000000000000000000000000000002
S315080000F000000000000000000000000000000000F2
S3150800010000000000000000000000000000000000E1
S3150800011000000000000000000000000000000000D1
S3150800012000000000000000000000000000000000C1
S3150800013000000000000000000000000000000000B1
S3150800014000000000000000000000000000000000A1
S30908000150EE11AA559F
S31508004000000001010100010001010000000100019A
S315080040104170704374726C5461736B0048414E630F
S315080040206F6465725F4F6C696D6578696E6F5F4620
S31508004030335F4143432E6300414443636F6E7665A5
S315080040407273696F6E5461736B000000000008009C
S3150800405000080048010000000000005006000000AB
S315080040600000080000080048020000000000005098
S3150800407007000000000008000008004804000000CF
S315080040800000005008000000000008000008004872
S3150800409008000000000000500900000000000800A9
S315080040A0000800481000000000010050050100004B
S315080040B00000080000080048200000000001005029
S315080040C00B01000000000200000000480800000084
S315080040D00000005004000000000002000000004834
S315080040E00400000000000050030000000000020069
S315080040F00000004801000000000000500100000018
S315080041000000020000000048020000000000005005
S315080041100200000000000200000000481000000035
S3150800412000010050010100000000020000000048E4
S315080041308000000000010050040100000000020099
S315080041400000004840000000000100500301000084
S315080041500000020000000048200000000001005096
S3150800416002010000000004000004004801000000ED
S31508004170000400500C02000000000400000400487F
S3150800418002000000000400500102000043616E4571
S3150800419076656E745461736B0000000043616E545B
S315080041A072616E736D69745461736B002E2E2F6283
S315080041B06C6F636B7365742F7274772F7372632FCA
S315080041C04F6C696D6578696E6F5F53544D33325F16
S315080041D046332F63616E2E63000000000101020161
S315080041E00202020202030202040202030303040398
S315080041F0030503030603030504040604040704046D
S31508004200080404070505080505080605080705083E
S315080042100706080806080807080808000000080036
S3150800422000080048010000000000080000080048D7
S315080042300200000000000800000800480400000012
S3150800424000000800000800480800000000000800F8
S315080042500008004810000000000008000008004898
S3150800426020000000000002000000004808000000CE
S3150800427000000200000000480400000000000200E0
S31508004280000000480100000000000200000000488D
S31508004290020000000000040000040048200000009E
S315080042A0000004000004004840000000000002006E
S315080042B0000000480001000000000200000000485D
S315080042C00002000000000200000000480004000090
S315080042D000000400000400488000000000000200FE
S315080042E0000000481000000000000200000000481E
S315080042F080000000000002000000004840000000A6
S315080043000000020000000048200000000000100025
S31508004310000C0048040000000000080000080048DF
S315080043200004000000000400000400480004000027
S315080043300000040000040048000800000000040013
S3150800434000040048001000000000040000040048B3
S31508004350002000000000040000040048004000009F
S315080043600000040000040048008000000000080067
S315080043700008004840000000000008000008004847
S315080043808000000000000800000800480001000046
S31508004390000008000008004800020000546D72433F
S315080043A070754C6F616400002E2E2F626C6F636B04
S315080043B07365742F7274772F7372632F2E2E2F7472
S315080043C0686972645F70617274792F667265657266
S315080043D0746F732F536F757263652F717565756585
S315080043E02E6300002E2E2F626C6F636B7365742F1D
S315080043F07274772F7372632F2E2E2F746869726406
S315080044005F70617274792F6672656572746F732F47
S31508004410536F757263652F7461736B732E63000037
S3150800442049444C45000000002E2E2F626C6F636BCA
S315080044307365742F7274772F7372632F2E2E2F74F1
S31508004440686972645F70617274792F6672656572E5
S31508004450746F732F536F757263652F74696D657208
S31508004460732E6300546D7220537663002E2E2F62CE
S315080044706C6F636B7365742F7274772F7372632F07
S315080044802E2E2F74686972645F70617274792F6654
S3150800449072656572746F732F536F757263652F70CB
S315080044A06F727461626C652F4743432F41524D5FAB
S315080044B0434D34462F706F72742E63002E2E2F6272
S315080044C06C6F636B7365742F7274772F7372632FB7
S315080044D02E2E2F74686972645F70617274792F6604
S315080044E072656572746F732F536F757263652F707B
S315080044F06F727461626C652F4D656D4D616E672FC5
S31508004500686561705F342E6300000000002C01406E
S315080045100008000002000000000000000000020081
S3150800452000000048000100000000020000000048EA
S315080045300002000000000040010000000100000029
S315080045400000000000000200000000480100000012
S3150800455000000200000000480200000000040040BD
S315080045600200000001000000000000000000080032
S315080045700008004840000000000008000008004845
S315080045808000000000080040040000000100000050
S31508004590000000000000040000040048400000007D
S315080045A00000040000040048800000000000040029
S315080045B0000400480020000000000000000004007D
S315080045C0000400480040000100000000000004004C
S315080045D000040048008000020000000000000200FD
S315080045E00000004800010000060800000000020064
S315080045F00000004800020001060900000000020051
S315080046000000004800040002060A0000000002003C
S3150800461000000048000800030B0B00000000020021
S31508004620000000480100010001000000000002002F
S31508004630000000480200010101010000000002001C
S315080046400000004804000102010200000000020008
S3150800465000000048080001030103000000000800EC
S31508004660000800484000020002060000000008009A
S315080046700008004880000201020700000000080048
S3150800468000080048000102020208000000000800B5
S3150800469000080048000202030209000000000400A6
S315080046A00004004840000300020600000000040061
S315080046B0000400488000030102070000000004000F
S315080046C0000400480001030202080000000004007C
S315080046D0000400480002030302090000002C014000
S315080046E00008000002000000000000001900000099
S315080046F0000000400100000001000000000000006A
S315080047001C00000000040040020000000100000038
S31508004710000000001D000000000800400400000022
S3150800472001000000000000001E000000000002005A
S31508004730000000480806000002000200000002000F
S3150800474000000048090600010400200000000200DD
S31508004750000000480A0600020800000200000200E5
S31508004760000000480B0B00031000002000000200A8
S3150800477000000048000101000200020000000200DB
S3150800478000000048010101010400200000000200A9
S3150800479000000048020101020800000200000200B1
S315080047A00000004803010103100000200000080073
S315080047B00008004806020200020002000000080085
S315080047C00008004807020201040020000000080053
S315080047D0000800480802020208000002000008005B
S315080047E00008004809020203100000200000040027
S315080047F0000400480602030002000200000004004C
S315080048000004004807020301040020000000040019
S315080048100004004808020302080000020000040021
S31508004820000400480902030310000020002C014080
S3150800483000080000021B0000000000400100000004
S31508004840011C00000004004002000000011D0000D9
S315080048500008004004000000011E00004576436879
S315080048606E6C31000038014000400000022500004F
S3150800487000000200000000480002090000000200D3
S315080048800000004800040A0000440040000002003E
S315080048900126000000000200000000480400020093
S315080048A0000002000000004808000300004800401D
S315080048B0000004000127000000000400000400486E
S315080048C000040A00000004000004004800080B0069
S315080048D0000002000000004800010000020002007B
S315080048E0060008000000020000000048000200015F
S315080048F0040020000600090000000200000000482D
S31508004900000400020800000206000A000000020077
S31508004910000000480100010002000200010000003A
S315080049200000020000000048020001010400200007
S315080049300100010000000200000000480400010216
S315080049400800000201000200000002000000004802
S315080049500800010310000020010003000000080001
S31508004960000800484000020002000200020006009B
S31508004970000008000008004880000201040020002A
S3150800498002000700000008000008004800010202B3
S3150800499008000002020008000000040000040048A5
S315080049A040000300020002000200060000000400A6
S315080049B000040048800003010400200002000700EC
S315080049C00000040000040048000103020800000279
S315080049D00200080000000400000400480002030367
S315080049E01000002002000900002C01400008000009
S315080049F002000000000000001B000000000000404C
S31508004A000100000001000000000000001C0000007A
S31508004A100004004002000000010000000000000041
S31508004A201D0000000008004004000000010000000E
S31508004A30000000001E0000002603530054004D002D
S31508004A406900630072006F0065006C006500630012
S31508004A50740072006F006E00690063007300000046
S31508004A6012010002020000408304405700020102BE
S31508004A7003010000040309043203530054004D00E7
S31508004A803300320020005600690072007400750079
S31508004A9061006C00200043004F004D0020005000CC
S31508004AA06F00720074002000200000000902430015
S31508004AB0020100C0320904000001020201000524B7
S31508004AC00010010524010001042402020524060041
S31508004AD001070582030800FF09040100020A000015
S31408004AE000070503024000000705810240000099
S315080080000B78FF2B00D070474B78002BFBD102F082
S31508008010F5B900BF08B5012000F0BEFCBDE8084070
S31508008020024A40F26761002002F0E0B801800008C9
S3150800803000F07EB8014B01221A707047D401002067
S31508008040014A013000F068BD5001002010B51A4CF5
S3150800805022780AB1002010BD184B1B780122032B89
S315080080600146227007D0042B1BD0934210D0002360
S315080080702370012010BD124B1B78002BF7D0034646
S31508008080104813F8012B0168007901F04DFDEEE761
S315080080900B4B1B78002BEAD00178023105F0F8FC6F
S315080080A0E5E7074B1B78002BE1D00278064B023236
S315080080B0187805F0B7FEDAE7C8010020D4010020D9
S315080080C050010020CC010020D501002001390729E4
S315080080D009D8DFE801F00F0C080908080804136836
S315080080E003605368436070471368036070471388DA
S315080080F00380704713780370704700BF013907295A
S3150800810009D8DFE801F00F0C080908080804036815
S3150800811013604368536070470368136070470388A9
S315080081201380704703781370704700BF704700BF0D
S315080081302DE9F04F2DED088B1F20A3B002F0AEF805
S31508008140144A10B91378002B34D1134D1070AB783C
S31508008150124A134C1370002B45D194F8CC200AB15F
S3150800816084F8CC3002F04CF90E4B187002F04EF938
S315080081700D4B02460D481A6002F04AF90C4A40F2C5
S3150800818001131060A4F8C83023B0BDEC088BBDE815
S31508008190F08F00BF0803002030020020E001002015
S315080081A038020020E1010020E40100201040000808
S315080081B0E8010020C24CC34D94F8CB1094F8C8309F
S315080081C0107003EB410194F8C930BF4A03EB410331
S315080081D0BE49CE18CB5C317AE970AB7084F8CB30E7
S315080081E01370002BB9D0BA4E0022012384F8CC3084
S315080081F000923346104640F2231101F0C5FF0028CD
S3150800820040F38B82B34AB6F902001080B24AB6F937
S3150800821004A0A2F800A0B14AB14BB6F906B0A2F87C
S3150800822000B032881A8007F04DFD9DA3D3E90023DC
S3150800823007F0B2FD80468946D4E92801A94BAA4E23
S31508008240C3E90001D4E92A23C6E9002307F0ECFBB9
S31508008250A64B41EC180BC3E90001504607F032FD66
S3150800826002460B4651EC180B07F0DEFB06460F4696
S3150800827047EC176B9E4B83ED007BD4E92C23CDE9A5
S31508008280026707F0D3FB06460F4640464946324684
S315080082903B4607F0FDFF002800F0AC8242464B46FD
S315080082A03046394607F0C0FB41EC190B32463B46CF
S315080082B04046494607F0F6FF002800F0988200225B
S315080082C000233046394607F0D9FF08B100260027B3
S315080082D00AEB4A00400307F0F5FC864B002207F03C
S315080082E05BFD02460B4651EC180B07F0DBFF002836
S315080082F000F06E824FEA8A3007F0E4FC7E4B0022DB
S3150800830007F04AFD02460B4651EC180B07F0D4FF5E
S3150800831020B994F8CA30002B00F02483774B0C93CD
S315080083201A4601231370764B76490020C3E90001EB
S3150800833032463B464046494607F076FB5AA3D3E900
S31508008340002306460F46DDE9020107F025FD024631
S315080083500B463046394607F069FB002206460F46AB
S31508008360002351EC190B07F0A7FF47EC1A6B002204
S315080083700023002800F0D08251EC1A0B07F09CFF6E
S31508008380002840F0D982604F0026404649463246CA
S315080083903B4607F091FF002800F002829FED447BE0
S315080083A05A4B0D93C3E900678DED067B584E0022A4
S315080083B0009233461046012101F0E6FE0028CABFA6
S315080083C030882888288007F06DFC3BA3D3E9002372
S315080083D007F0E2FC637A41EC190B0BB100236372D8
S315080083E0E56A2B68012B00F0A2810123DFF81491BE
S315080083F02B604FF0000A4FF0000B2B7105F11000AF
S3150800840010AB4FF000080021482207460293C5E941
S3150800841002AB404B0B93C5E918ABC5E91689089121
S3150800842008F036F848223946029807F097FF394B84
S3150800843051EC190BC3E900AB52465B4607F0F6FA56
S31508008440CDE9040149EC1B8B089A22AB03EBC20366
S31508008450DDE904014FEAC20853E9122307F0E6FAF8
S31508008460CDE90E0108F188030DEB030808ED129B10
S3150800847059EC1B8B284B1BEE100A0022494607F0C5
S31508008480F3FE002840F00C821BEE100A1D4B4946ED
S31508008490002207F0CBFACDE908013FE0AFF30080F0
S315080084A0000000004062503F000000A09999B93FC3
S315080084B00000000000C0724000000000E0361A3FCD
S315080084C03802002030020020E001002000400008A9
S315080084D01402002018030020D601002020020020E4
S315080084E008020020F801002028020020F0010020E0
S315080084F0D80100200000203F0000303F1C02002069
S31508008500200300200000F03F000008400002002081
S315080085100C02002010030020000022400022002345
S315080085205046594607F0A0FE002800F0B481C84B13
S315080085300022DDE90E0107F059FD0B9E02460B46A7
S31508008540C6E90023C34B002207F026FC804689466D
S315080085509DED047B029985ED027B4822384607F09B
S31508008560FDFE9DED087B002285ED167B0023504617
S31508008570594607F0A1FE002800F0B881B64B5046D0
S315080085805946002207F050FA0D9BD3E90067C5E962
S315080085901801B04B00223046394607F0FDFB42462B
S315080085A04B4607F041FAD4E9302382468B4607F05A
S315080085B03DFAAA4B00228046894607F07DFE002830
S315080085C040F06281002200234046494607F056FEE5
S315080085D0002840F0BD8149EC188BD4E92E23DDE94B
S315080085E0060107F021FA9E4B002207F0D5FB02464A
S315080085F00B463046394616461F460022994B07F069
S31508008600CBFB02460B463046394607F00FFA8AA3DB
S31508008610D3E9002307F0C0FB07F086F907F056FEFA
S3150800862000B207F04FFB53EC182B07F0FFF98B4B02
S31508008630002206460F4607F03FFE0546002800F0D2
S315080086404681894B4FF416751D80844B002240469F
S31508008650494607F031FE002800F0DE8040464946CC
S315080086607E4B002207F0E0F98046894674A3D3E9D9
S3150800867000235046594607F08FFB06460F4605204D
S31508008680294604F037FE70A3D3E90023D4E928016C
S3150800869007F0CCF96CA3D3E90023C4E9280151EC0F
S315080086A0190B07F079FB02460B46D4E92A0107F0B5
S315080086B0BDF953EC1A2BC4E92A01D4E92C0107F0B9
S315080086C0B5F90C9B9DED067B1B7884F8CA30C4E986
S315080086D02C01002200234046494684ED2E7B07F0F4
S315080086E0EBFD00220023002800F0038130463946BE
S315080086F007F0E2FD002840F00C8153A3D3E90023DC
S315080087003046394607F048FB02460B46D4E93001A5
S3150800871007F08CF9C4E9300124E55449544A554B0D
S31508008720B1F90000B2F900A0B3F900B07BE595ED08
S31508008730167B10AB0293504B0B9351EC170BB0EE14
S3150800874047BAF0EE67BA1E4607F0C0FD95ED028BF4
S31508008750421E05F110074FF000084FF00009089275
S31508008760394648220298D5E918AB07F0F7FD53ECCD
S31508008770182BC6E9008951EC190B07F057F9424640
S31508008780CDE904014B465046594607F06DFD0028D1
S315080087907FF45AAE089BCDE90E894FEAC30861E615
S315080087A0002600273B4640464946324607F066FD06
S315080087B0324B0D93002840F0C680C3E90089404635
S315080087C0244B4946002207F0E7FACDE90601EDE514
S315080087D02B4B0C93BBF1000F18707FF7A4AD294BF8
S315080087E000200021C3E90001B046B946A0E5464687
S315080087F04F466DE5002200233046394607F05CFDFA
S31508008800002800F0AC8032463B463046394607F031
S315080088100BF941EC190B49E500220023404649466D
S3150800882007F040FD00283FF421AF4FF000084FF055
S3150800883000091BE7AFF3008000000040355E0040EA
S31508008840000000606666E63F00000040E17A843F6B
S3150800885000002440000059400000F03F00C082405C
S3150800886000408F40000049401E02002018030020E7
S31508008870D60100202002002010030020000200205C
S315080088801C020020200300209FED3B7BB0EE478AA8
S31508008890F0EE678AA1E64FF000084FF0000957E6A8
S315080088A0029E0DF1800878E80223D8E9000107F056
S315080088B0BDF84645C8E90001F5D19FED317B8DED40
S315080088C0047B9FED317B02968DED087B26E6002220
S315080088D000233046394607F0D1FC20B930463946E0
S315080088E007F01CFD85B22A4B1D80AEE6002000214C
S315080088F04AE63046394607F0DFFC00287FF4FDAE2D
S31508008900404649460022002307F0AEFC00287FF4C3
S31508008910F4AE00220023F9E63046394607F0CCFCCF
S3150800892000287FF430AD51EC190B0022002307F024
S315080089309BFC00287FF427AD9FED117BB0EE47AA7C
S31508008940F0EE67AA1FE5C3E90067CDE906672DE5DE
S315080089509FED0B7BB0EE478AF0EE678A3DE647EC63
S31508008960196BA3E40B4A0C92BBF1000F13703FF787
S3150800897036AFD8E4AFF300800000000000C08240A4
S315080089800000000000000000000000000000F03FAA
S315080089901E0200201C020020F0B5082185B0202008
S315080089A000F096FE002001F0AFFB02211F2001F027
S315080089B03FFC00221421012004F03CFB2D492E4CDB
S315080089C0012004F0DDFC00221146052004F0A8FB76
S315080089D040F22311002001F0B7FB0121002001F02D
S315080089E0B3FB2246002542F8385F012340F21920DE
S315080089F0C4E90C33E26263602381257000F0F8FB5A
S31508008A0042F2107000F0E8FB4FF47A7000F052FD65
S31508008A101A498DF80C5001AA2846CDE9015500F0EF
S31508008A2009FF012804D0164840F2E52101F068FD47
S31508008A3005F024F905F034F9124BE56A12490122CA
S31508008A40DA702B6800209342C4E928010FD100266A
S31508008A5000274822C5E90267002105F1100007F042
S31508008A6017FD0A4B0022C5E91867C5E9162305B0A4
S31508008A70F0BD00BF2D8100083802002020A10700A4
S31508008A801C40000830020020000034400000F03F7F
S31508008A900378034400225A7003786BB110B401229C
S31508008AA00133845CC15C2144C15401320378D2B2DB
S31508008AB09342F5D25DF8044B704700BF10B501210B
S31508008AC0FF22064B01704270DB7C04460BB1FFF7B0
S31508008AD0DFFF2046BDE81040FFF7B8BA2C03002098
S31508008AE038B5FE220225074B817005704270DB7C83
S31508008AF004460BB1FFF7CCFF2046BDE83840FFF728
S31508008B00A5BA00BF2C030020024BD8741975DA8267
S31508008B10704700BF2C0300202DE9F0410378D33BB2
S31508008B20054614462C2B39D8DFE813F03A00D20153
S31508008B30AC018D017501380001022E02380038009B
S31508008B406A01410138002A010B01FF00380038008C
S31508008B503800380038003800380038003800380047
S31508008B603800380038002D00380038003800E50095
S31508008B70BB00B1003800380038009D0083007D0036
S31508008B80690033001602B74B41785A680230FFF77E
S31508008B90B5FA2046BDE8F041FFF790BFBDE8F08181
S31508008BA04388B14895F804E0B0496F7903EBC306EA
S31508008BB00523825913FB0E220B68177113606D7912
S31508008BC0A5B100F2F970834280F0F3816A1ED2B231
S31508008BD00132C2EBC2021A4402E0834280F0EF81FE
S31508008BE007339342F9D10B60C5EBC505A04B1A684C
S31508008BF0154420461D60BDE8F041FFF75FBF06211A
S31508008C00FF229C4B217062709A7CA2702021002260
S31508008C10E270A4F805202171DB7CE3B92046BDE8A3
S31508008C20F041FFF713BA20460021BDE8F041FFF7EF
S31508008C3057BF002320220826FF2514208D492670B9
S31508008C406570A2702271E3706371A371E37120727B
S31508008C50CB7C002BE2D02046FFF71AFF2046BDE862
S31508008C60F041FFF7F3B9844A824B12881A6008204C
S31508008C700022FF2120706170A270E2701A68C4F8A1
S31508008C80052020222271DB7C002BC7D0E3E7754B39
S31508008C90C178197042685A602046BDE8F041FFF76E
S31508008CA00DBF744E3268002A00F08B814378FF228C
S31508008CB00133237062704378002B00F0BC81DFF823
S31508008CC0C0E16E4F9EF800200023E118B85C88705A
S31508008CD031680139316001336878DBB20132984274
S31508008CE0D2B2F2D88EF8002009B9654B1970F37C18
S31508008CF0002B93D0AFE7437847680133FF222370F0
S31508008D0062704378002653B1B01CBA192044012179
S31508008D10FFF7DCF901366B78F6B2B342F4D8554B57
S31508008D20DB7C002B3FF47AAF95E7524B42881A81D9
S31508008D3002799A726A79DA722046BDE8F041FFF73D
S31508008D40BDBE4C4BDFF820E11A89DF7A997A46785E
S31508008D5002EBC20220465EF80230052212FB013100
S31508008D6007220B6812FB07331E70AA785A70EA7836
S31508008D709A706A68C3F80320BDE8F041FFF79EBE03
S31508008D803C4B42781A7342881A818288DA81827942
S31508008D901A74C2795A744388334A817903EBC30338
S31508008DA0134420465971BDE8F041FFF787BE0222F9
S31508008DB0FF232270637042882B4F2E4E02EBC202AD
S31508008DC03A44137AA370F37C002B40F014812046B2
S31508008DD0FFF73CF96B886978F288264803EBC303EA
S31508008DE03B44013A19716B8893427FF4D7AE6B788E
S31508008DF0827C9B0103F0400313438374BDE8F08132
S31508008E004378002B7FF4CAAE1A4A93742046BDE80D
S31508008E10F041FFF753BE0723237023710120642115
S31508008E2005220023FF2704266770A670E070A2714A
S31508008E306171E3710F4AAB78D17C03441371002941
S31508008E403FF4ECAE07E7094B0A4A074818600023C7
S31508008E500749937453762046BDE8F041D3800B60EA
S31508008E60FFF72CBEE83A0020E4320020E43A00205E
S31508008E70480300202C030020180000201C000020B6
S31508008E80280300206D4B4288DA8040886C496D4A79
S31508008E900A60002800F0CD8002F2F775954288BF77
S31508008EA0002303D885E0AA4280F082800133DBB232
S31508008EB0834202F10902F6D30A6000EBC003624A54
S31508008EC0116820460B44BDE8F0411360FFF7F6BD74
S31508008ED042885C485A492F790B6802EBC202161879
S31508008EE0F77113502A7982B100F2FB70834260D27F
S31508008EF0013AD2B2013202EB82021A4401E08342FD
S31508008F005DD205339342FAD10B604C484E49477EF1
S31508008F1037722A790B683A4442762D79052212FB74
S31508008F2005332046BDE8F0410B60FFF7C7BD0023B7
S31508008F3001220827FF261F25522040492770667000
S31508008F40A270A4F80720E57023716371A071CB7C29
S31508008F50002B3FF463AE7EE6384B802200260825B8
S31508008F60FF2004219E7425706070A170E2701A7D3E
S31508008F702271DA8AA4F805200122E2712272DB7CCA
S31508008F80002B3FF44BAE66E600230826FF25532048
S31508008F9003212A4A26706570A070A4F80330E3718D
S31508008FA02372A4F80510D37C002B3FF437AE52E6A3
S31508008FB00A6020463021BDE8F041FFF791BD0B60FD
S31508008FC0F7E737794378D7B10133FF21237061700A
S31508008FD043786BB11D483379013BC3EBC3030344A4
S31508008FE0A1189B5C8B7001326B78D2B29342F2D88F
S31508008FF0002333717BE62046FFF74AFDE7E6013397
S31508009000FF22237062704378002B3FF470AEDFF8BE
S315080090104080D8F80420B81C531C20440121C8F805
S3150800902004300137FFF752F86B78FFB2BB42F0D82D
S315080090305DE6034643E7316856E600BF2C03002089
S31508009040E43A0020E4320020480300200000002013
S31508009050E83A00202DE9F04F91B003A8322200210A
S3150800906007F016FA3A4B9B7C402B05D0384A00236A
S31508009070137611B0BDE8F08F354B3549DB880122F0
S315080090800A76002BF5D0002301934FF0070909E073
S31508009090019B03F1010B2E4BDB885FFA8BF293429F
S315080090A00192E6D9019B03EBC3062A4B1E44B3790A
S315080090B032790133DBB2012AB371E9D172799A4266
S315080090C0E6D8F379327A8DF80D204FF0000AABB363
S315080090D033680AEB8A0808EB030B9BF80420A2B353
S315080090E00025022400E0336858F8037019FB057759
S315080090F003AB1819D7F803207978FEF7E7FF01358F
S315080091007B789BF80420EDB21C44AA42E4B2EAD864
S31508009110013CE4B20E4B8DF80C40DB7C8BB903A8FE
S31508009120FEF794FF0AF1010A9DF80D30F2795FFA0D
S315080091308AFA013352458DF80D30C9D80023B37128
S31508009140A6E703A8FFF7A4FCE9E70124E2E700BFC6
S315080091502C030020E432002030B583B001F0DAFF9A
S3150800916002AC054D44F8040DFEF762FF2968204657
S3150800917002F00EF9F8E700BF5400002010B584B0DD
S31508009180002403F0E9FE03F05BFEFEF743FF00F060
S31508009190B5F905222346009203940294019480228D
S315080091A00849094801F0ACFD084B039406211A88C2
S315080091B007480091029401942346064901F0A0FD50
S315080091C004B010BD38400008CD94000858000020AF
S315080091D05991000810400008034A044BA2FB0020DE
S315080091E040091860704700BF1F85EB5154000020E6
S315080091F080087F28024B96BF802218801A80704705
S31508009200580000202DE9F0439C4B1A78012A95B0A6
S315080092100CD04FF0A04003F0B1F8994803F0AEF82F
S31508009220984803F0ABF815B0BDE8F08300259648DA
S315080092301D7003F0A3FB9548954C03F09FFB9548DA
S3150800924003F09CFB4FF0A04002F0E0FF8C4802F0D0
S31508009250DDFF8C4802F0DAFF8F4890490B952B46C4
S315080092602746224609900A915178D8B2023201332C
S31508009270002900F00081102BF6D180224FF480607F
S31508009280002509A9ADF830300E924FF480532022FC
S3150800929010904FF480767C48119212930D95139591
S315080092A00F9603F0FFFB0121774803F01BFC784A71
S315080092B001950295039504950595069507952B4600
S315080092C05178DDB20232013311B1102BF8D11D46A7
S315080092D001A94FF0A0408DF8205002F0C3FF704B53
S315080092E070496B4A0A930991002392F82110D8B263
S315080092F002320133002900F0BC80102BF5D109A9F0
S315080093006248ADF8303003F0CDFB01215F4803F029
S31508009310E9FB5F4A002392F82110DDB202320133DD
S3150800932011B1102BF7D11D4601A955488DF82050CB
S3150800933002F098FF5C4B5D49554A0A930991002350
S3150800934092F84110D8B202320133002900F08F801A
S31508009350102BF5D109A94F48ADF8303003F0A2FB20
S3150800936001214C4803F0BEFB494A002392F821101C
S31508009370DDB20232013311B1102BF7D11D4601A916
S3150800938040488DF8205002F06DFF494E4FF0000816
S315080093904FF000094FEA08155FFA89FE22460023B6
S315080093A05178D8B20232013311B1102BF8D11846D0
S315080093B0864509F101090ED2AE44052317F81E00A9
S315080093C000EB800006EB80005FFA89F2017CC0683A
S315080093D002F072FFE0E708F10108B8F1030F04F1A3
S315080093E02004D5D100214FF0A04002F0D7FF01217B
S315080093F04FF0A04002F0C8FF01214FF0A04002F054
S3150800940051FF01214FF0A04002F0D0FF0028F8D00C
S315080094104FF0A04002F0B2FF0021194802F0BEFF4B
S315080094200121174802F0B0FF0121154802F03AFF62
S315080094300121134802F0BAFF0028F9D0104802F0BB
S315080094409DFF00210F4802F0A9FF01210D4802F0F7
S315080094509BFF01210B4802F025FF0121094802F074
S31508009460A5FF0028F9D0074802F088FFD1E683B2A5
S3150800947070E783B243E783B2FFE600BFC403002068
S315080094800001005000040050080002400804024091
S31508009490600300205804024040000050500300209A
S315080094A0C803002040010050C003002040040050BB
S315080094B04C400008034A044BA2FB002040091860F0
S315080094C0704700BF1F85EB515C00002070B582B065
S315080094D001F020FE02AC074E44F8040D064D03E0E9
S315080094E02968204601F054FF3378012BF8D1FFF79D
S315080094F089FEF5E74C0300205C000020034B1B782F
S31508009500012B00D07047FFF77DBE00BF4C0300203B
S315080095102DE9F0472D4D2E4CDFF8BC80DFF8BC90C6
S3150800952086B000234FF0FF326946286801F016FA24
S31508009530012805D00122142142F2081003F0A4FCE8
S315080095402378012BEDD19DF80030032B37D8DFE8BF
S3150800955003F02A1A0E02D8F800300BB101209847FA
S31508009560D8F80430002BDCD001209847D9E7D8F882
S3150800957000300BB100209847D8F80430002BD0D023
S3150800958000209847CDE7134E06F1080A56F8047BE3
S315080095900DF1090227B1059B9DF808100198B847F7
S315080095A0B245F3D1BDE7D9F800300BB10198984719
S315080095B0D9F80430002BB4D001989847B1E70122B6
S315080095C0142142F2091003F05FFCAAE7EC0300201D
S315080095D0E4030020DC0300200C040020D403002050
S315080095E02DE9F0470027364C364DDFF8E0808AB083
S315080095F03E4600234FF0FF326946206801F0AEF977
S31508009600012805D00122142142F2071003F03CFC80
S315080096102B78012BEDD19DF80430082B40D8DDF8C6
S3150800962000908DF81E3019F0804228D18DF81D2043
S3150800963063B1013BDBB205336B4401AA0DF11E0190
S3150800964012F8010F01F8010F9A42F9D14B46002B87
S315080096501CDB8DF81C7005930696CDF8009000F07B
S31508009660C9FE05A98246184802F0CEFF0346042B18
S31508009670504613D048F8239000F0BEFEB9E70223FF
S315080096808DF81D3029F08043002BE2DA23F00043E1
S315080096900422069305968DF81C20DEE700F0ACFE42
S315080096A0012300226946206801F04AF80028A0D163
S315080096B00122142142F2041003F0E6FB99E700BFE9
S315080096C0F4030020E403002000640040FC030020AB
S315080096D0F0B5494A494E4A4F4A4D4B4C288000231B
S315080096E0012833607360136053603B607B609CBFE6
S315080096F002232B80032998BF042387B021804FF4C7
S3150800970080204FF0010198BF238003F07FFA0121E2
S315080097104FF0007003F096FA3C4E208800231A4654
S315080097201821337000F0DEFF394B1860002855D039
S3150800973028880022142100F0D5FF364B186000282F
S3150800974053D0092208213448344D03F043FA09223C
S315080097501146314803F03EFA00240222032301266B
S3150800976004A92D488DF814204FF440778DF815304C
S3150800977004978DF816408DF8176003F0BFF90A2292
S315080097808DE8240003940294234680222449254820
S3150800979001F0B6FAB04205D03246142142F2021060
S315080097A003F072FB204C21492148002302228DE850
S315080097B0140003930293802201F0A2FA012805D02F
S315080097C00122142142F2031003F05EFB286801F01F
S315080097D09BFB206801F098FB07B0F0BD012214211D
S315080097E04FF4045003F050FBA2E70122142142F281
S315080097F0011003F049FBA4E70C040020DC03002059
S31508009800D4030020E8030020E6030020E403002038
S31508009810EC030020F403002000040048F8030020AD
S315080098208C41000811950008080400209C41000896
S31508009830E1950008A1F59C53B248083B83420AD833
S315080098401368B3F1005F06D25368B3F1005F02D222
S31508009850137A022B01D9002070472DE9F047AA4850
S31508009860AA4F082688B0A0F13F0E354633464FF07A
S31508009870640C02E0C378057946791D44EDB26B1C89
S315080098803344DBB201FB03F4B7FBF4F4A4B204F1EE
S31508009890FF38B8F5806F03FB04F3A0F1030012D27A
S315080098A0B7FBF3F35B1A0CFB03F3B3FBF1F313F00B
S315080098B0800F0CBF4FF001084FF0FF0813FB08F3A9
S315080098C05BB2022B05DD8645D4D1002008B0BDE881
S315080098D0F087914600F08EFD80468D4802F06CFDBB
S315080098E001A802F07DFE002701A9013D013E4FF0C7
S315080098F0010A8748ADF804408DF808508DF80960CC
S315080099008DF80A708DF80B708DF80C708DF80D7047
S315080099108DF80E708DF806708DF807708DF80FA00B
S3150800992002F058FD99F80840002C00F0868054454E
S3150800993040F0AA80D9F80420D9F800308DF81B70B9
S31508009940D200DB00190C150C43F0040342F00402A4
S3150800995004A88DF81C408DF81D408DF81A70ADF8D6
S315080099601870ADF81050ADF81220ADF81410ADF817
S31508009970163002F0BBFD04A88DF81A40ADF8184061
S3150800998002F0B4FD08AD132305F8203D01240F228B
S31508009990002328468DF801208DF802308DF8034003
S315080099A002F0FCFB142328468DF8003002F0F6FB83
S315080099B0152328468DF8003002F0F0FB16232846BA
S315080099C08DF8003002F0EAFB22462146504802F0A4
S315080099D0D1FE224602214E4802F0CCFE2246102134
S315080099E04B4802F0C7FE22460821494802F0C2FE4B
S315080099F022464021464802F0BDFE22464FF48061C9
S31508009A00434802F0B7FE434B1C7001F083FB642207
S31508009A10414B424902FB00F0A3FB00239B09404649
S31508009A200B6000F0E9FC3E4B186801F0EFFA3D4B7D
S31508009A30186801F0EBFA204648E7D9F80030D9F85B
S31508009A4004208DF81B405B0143F0080352019BB2CA
S31508009A5092B204A88DF81C408DF81DA08DF81A4006
S31508009A60ADF81840ADF81430ADF81630ADF8102042
S31508009A70ADF8122002F03AFD04A88DF81AA0ADF848
S31508009A8018A002F033FD7DE7D9F80030D9F8042094
S31508009A908DF81B705B0143F0080352019BB292B22A
S31508009AA004A8ADF81430ADF81630ADF81020ADF8AE
S31508009AB012208DF81C708DF81DA08DF81A70ADF85F
S31508009AC0187002F013FDD9F80420D9F800308DF883
S31508009AD01CA0D200DB00140C190C42F0040243F05F
S31508009AE0040304A88DF81AA0ADF818A0ADF8104024
S31508009AF0ADF81220ADF81410ADF8163002F0F6FCE9
S31508009B0040E700BFB82E0F00154200080051250295
S31508009B1000640040E4030020D34D6210F0030020E7
S31508009B20F80300200804002030B587B08DF8082017
S31508009B30019152B1013A53FA82F202A9013B13F894
S31508009B40010F01F8010F9342F9D11B4C206801F06F
S31508009B5007F81A4B1B88181A012812D920680023FF
S31508009B606A4601A900F096FE10B1012007B030BD83
S31508009B700122142142F2041003F086F9012007B0ED
S31508009B8030BD0F4B1B7843B90122142142F2041051
S31508009B9003F07AF9002007B030BD00F02BFC05462B
S31508009BA0084802F0E3FD0446284600F025FC002C90
S31508009BB0EAD0002007B030BDF4030020E8030020F7
S31508009BC0E403002000640040044B1A681AB15A687E
S31508009BD002B17047012243F82210FAE7D4030020A5
S31508009BE0044B1A681AB15A6802B17047012243F841
S31508009BF02210FAE7DC03002070B54D4B1B788EB0B7
S31508009C000024012B0194029401D00EB070BD00F01F
S31508009C10EDFB0221474802F0F9FD0128034610D062
S31508009C200821444802F0F2FD012805465ED000F0FE
S31508009C30DFFB019B002BE8D03F4B4FF080521A60A8
S31508009C40E3E721463B488DF8203002F083FD0446C1
S31508009C5080B33A4E3A4D374803AA002102F02AFD4E
S31508009C6001F058FA642303FB00F032689DF81410DB
S31508009C709DF816308DF82830A5FB00E0C2EB901051
S31508009C800D9071BB039A09929DF8152022BB6BB102
S31508009C905A1ED2B203AB0B321A440AA90DF11603A7
S31508009CA013F8010F01F8010F9342F9D1013C14F0A2
S31508009CB0FF04D0D1234A0023106808A902AA00F09D
S31508009CC0E9FD38B3029B1B48012B4FF0020108BF80
S31508009CD0019302F00DFEAAE7099B43F0804309931E
S31508009CE0E4E7049A42F000420992CDE7154A234672
S31508009CF01068022401AA08A98DF8204000F0CAFDC0
S31508009D0078B111490B4802F069FD0821094802F0AB
S31508009D10EFFD8CE70122142142F2061003F0B4F895
S31508009D20D0E72A46142142F2061003F0ADF8E8E718
S31508009D30E40300200064004004ED00E0F003002086
S31508009D40D34D6210EC0300201000003270B54D4B65
S31508009D501B788EB00024012B0194029401D00EB01A
S31508009D6070BD00F043FB1021474802F04FFD012863
S31508009D70034610D04021444802F048FD0128054614
S31508009D805ED000F035FB019B002BE8D03F4B4FF02F
S31508009D9080521A60E3E701463B488DF8203002F00E
S31508009DA0D9FC044680B33A4E3A4D374803AA0121F6
S31508009DB002F080FC01F0AEF9642303FB00F0326880
S31508009DC09DF814109DF816308DF82830A5FB00E094
S31508009DD0C2EB90100D9071BB039A09929DF815205D
S31508009DE022BB6BB15A1ED2B203AB0B321A440AA974
S31508009DF00DF1160313F8010F01F8010F9342F9D17B
S31508009E00013C14F0FF04D0D1234A0023106808A9A6
S31508009E1002AA00F03FFD38B3029B1B48012B4FF006
S31508009E20100108BF019302F063FDAAE7099B43F0FE
S31508009E3080430993E4E7049A42F000420992CDE789
S31508009E40154A23461068022401AA08A98DF820405D
S31508009E5000F020FD78B111490B4802F0BFFC402103
S31508009E60094802F045FD8CE70122142142F206104A
S31508009E7003F00AF8D0E72A46142142F2061003F046
S31508009E8003F8E8E7E40300200064004004ED00E07E
S31508009E90F0030020D34D6210EC03002010000034BC
S31508009EA030B52F4B1C7889B00025012C019501D0BF
S31508009EB009B030BD00F09AFA21462A4802F0A6FCFD
S31508009EC0012809D000F094FA019B002BF0D0264B0C
S31508009ED04FF080521A60EBE72449224802F054FCFE
S31508009EE001282CD022491F4802F04EFC01280446BE
S31508009EF02AD020491B4802F047FC01282AD040F204
S31508009F00AB311D4800F0FCFA1C4B1D4A53F82530AE
S31508009F10106803930024234601AA02A98DF8084075
S31508009F2000F0B8FC20B101210E4802F0E1FCC9E7B7
S31508009F300122142142F2061002F0A6FFF3E70B49AC
S31508009F40084802F04BFCDFE70949064802F046FCE0
S31508009F502546D9E70749034802F040FC0225D3E71E
S31508009F60E40300200064004004ED00E0010000382E
S31508009F700001003800000138AC410008FC0300204D
S31508009F80EC03002030B51A4B1B7889B00024012B4E
S31508009F90019401D009B030BD00F028FA4FF4806171
S31508009FA0144802F033FC0128054609D000F020FACF
S31508009FB0019B002BEED0104B4FF080521A60E9E758
S31508009FC00E4A23461068032401AA02A98DF8084000
S31508009FD000F060FC28B14FF48061064802F088FC66
S31508009FE0E4E72A46142142F2061002F04DFFF2E792
S31508009FF0E40300200064004004ED00E0EC030020C8
S3150800A000084B1B686BB11A68824203D106E01A68CE
S3150800A010904203D09B68002BF9D170475B6803B167
S3150800A020184770471C0400202DE9F047334C246874
S3150800A0300546884691469A464CB12368984203D10C
S3150800A04047E02068854222D0A469002CF9D12C4B20
S3150800A050186848B103689D4203D110E00468A54218
S3150800A0600DD080680028F9D1264B1C686CB353467E
S3150800A0704A4641462846A446BDE8F0476047436835
S3150800A0802BB3524649464046BDE8F047184700F00C
S3150800A090B1F984F80480B8F1000F0CD008F1FF3349
S3150800A0A059FA83F309F1FF36271D16F8011F07F839
S3150800A0B0011F9E42F9D1237DC4F810A07E2B01D83A
S3150800A0C00133237500F098F9C1E7BDE8F087BDE8CC
S3150800A0D0F08700F08FF984F80480B8F1000FEAD011
S3150800A0E008F1FF3659FA86F609F1FF33221D13F8EF
S3150800A0F0011F02F8011FB342F9D1DCE7140400205E
S3150800A100180400202004002070B5094A094E0A4D9B
S3150800A1100A4B0B490024204634602C6014601C60EE
S3150800A120FFF752FD20460749BDE87040FFF758BDC6
S3150800A130140400201C040020180400202004002019
S3150800A14001A0000829A0000838B51C200D4601F01A
S3150800A15033FF044678B10B4925600A680023237546
S3150800A160A3610AB905E01A469369002BFBD19461ED
S3150800A17038BD0C6038BD012214214FF4085002F096
S3150800A18083FEE8E7140400201748F8B50468069F1C
S3150800A1904CB12068884203D108E02068814205D086
S3150800A1A0A469002CF9D14FF0FF30F8BD15461E46BC
S3150800A1B000F020F90DB123792B700FB123693B60AC
S3150800A1C056B1237943B10022A118551C4979B154D7
S3150800A1D02179EAB29142F7D8257D0DB16B1E237518
S3150800A1E000F00AF968B2F8BD1404002070B50C2016
S3150800A1F00E46154601F0E0FE044678B10B4B266084
S3150800A2001A6865600021A1600AB905E01A469368D4
S3150800A210002BFBD1946070BD1C6070BD0122142117
S3150800A22042F2022002F030FEE8E700BF18040020E0
S3150800A2302DE9F0411F2882B004460E4625D867004E
S3150800A240154D3B199B0005EB0308E858012102F060
S3150800A250DDFCB8F808300093032200238DF80520AA
S3150800A2608DF804302EB1012E03D002238DF8073065
S3150800A27001E08DF807603C4405EB84046946606894
S3150800A28002F03CFC02B0BDE8F081012214214FF433
S3150800A2900C5002F0F9FDD2E71C4200081F2810B541
S3150800A2A004460ED80A4B04EB440403EB84042189C4
S3150800A2B0606802F07FFCA0F10100B0FA80F0400966
S3150800A2C010BD012214214FF40C5002F0DDFDE9E720
S3150800A2D01C4200080C490D484B6870B4C3F5C333DB
S3150800A2E06422A0330A4E04780A4D02FB03F35B0985
S3150800A2F0A6FB0323C3F3C7139C422B7038BF037016
S3150800A30000234B6070BC70473C04002038040020D2
S3150800A310C55A7C0A2C04002070B50D46064606F080
S3150800A3200FF90446284606F00BF9844201D00020AE
S3150800A33070BD6CB132782B789A42F8D1002303E0CD
S3150800A340F05CEA5C9042F2D10133DBB29C42F7D86A
S3150800A350012070BD80B51D4D1D4F1E4B1E481F4E5A
S3150800A36082B000240093012223463C602C706C6066
S3150800A3702C7242F2107101F0D3FA30600446E8B14B
S3150800A380174A184B002515701D7000F0C3FE00957E
S3150800A39002462B462046012101F0E8FA012805D09D
S3150800A3A0012214214FF4805002F06EFD0E4B00225C
S3150800A3B01A60FEF7E3FE00F067FEFEE701221421AD
S3150800A3C04FF4805002F060FD3468D9E73C04002061
S3150800A3D028040020D5A200089C4300083404002065
S3150800A3E02C0400203804002030040020704700BFE9
S3150800A3F0704700BF01F05CBC01F08EBC02F0AEBD38
S3150800A400014B1878704700BF2C04002001F0B6BE37
S3150800A41070B5054601F04CFC114B1C6806467CB12C
S3150800A4202946A068FFF778FF012805D10DE0A06846
S3150800A430FFF772FF012808D024692946002CF6D1B7
S3150800A440304601F069FC002070BD6468304601F0B2
S3150800A45063FC20461CB101F015F9800070BD70BD83
S3150800A460280400202DE9F041804614200F461446A2
S3150800A47001F0A2FD054630B30023AF60EC602B6106
S3150800A480C5F8048001F014FC124E074601F010FCD2
S3150800A490346802460CB90DE01C462369002BFBD133
S3150800A4A0104601F039FC256138462C60BDE8F041BC
S3150800A4B001F032BC01F030FC2C6035603846BDE84E
S3150800A4C0F04101F029BC012214214FF4805002F01A
S3150800A4D0DBFCD1E728040020074A138801339BB226
S3150800A4E0092B138005D905490B68002001330B6039
S3150800A4F0108002F009BC00BF2404002030040020AC
S3150800A500012214214FF4805002F0BEBC054B1A7884
S3150800A510012A00D070471A7A002AFBD15A680132FC
S3150800A5205A6070473C04002008B501F0C1FB044B93
S3150800A5300121002219701A72BDE8084001F0ECBB2F
S3150800A5403C040020014B00221A7070473C0400208E
S3150800A55038B51546026C04463AB90568002D2DD063
S3150800A5600020A36B0133A36338BD85B9806805F065
S3150800A570F5FEA168236C62680B449342A360EFD38F
S3150800A5802368A360A36B01332846A36338BDC0685C
S3150800A59005F0E4FE236CE26821685B421A448A42AD
S3150800A5A0E26002D262681344E360022DD8D1A36B3D
S3150800A5B0002BD5D0A36B013BA363D1E7406801F01C
S3150800A5C0D5F86560CDE700BF026C72B110B40B46D2
S3150800A5D0C16844681144A142C16024BF0168C160D2
S3150800A5E05DF8044B184605F0B9BE704738B5044601
S3150800A5F001F076FBA36C002B14DD636A93B104F1BA
S3150800A600240507E0A36C013BA364A36C002B09DDBA
S3150800A610636A3BB1284600F095FF0028F2D001F0A6
S3150800A6202BF8EFE74FF0FF33A36401F079FB01F055
S3150800A63057FB636C002B14DD236993B104F11005F5
S3150800A64007E0636C013B6364636C002B09DD2369D7
S3150800A6503BB1284600F076FF0028F2D001F00CF84E
S3150800A660EFE74FF0FF336364BDE8384001F058BBAD
S3150800A67038B50D46044670B301F032FB226CE36B25
S3150800A6802168A16003FB02F39A1A0A440B440020CE
S3150800A6904FF0FF31A063E26061646360A16475B93D
S3150800A6A023691BB901F03CFB012038BD04F11000F9
S3150800A6B000F048FF0128F5D101F0EEFAF2E704F1BF
S3150800A6C0100003F0CDFD04F1240003F0C9FD01F0EC
S3150800A6D027FB012038BDDE210148FFF711FFCBE734
S3150800A6E0A843000870B50E460546C8B156B106FB24
S3150800A6F005F04D3001F060FC0446B8B100F14C039A
S3150800A700036005E04C2001F057FC044670B1246054
S3150800A710E563266401212046FFF7AAFF204670BD9F
S3150800A72040F219110548FFF7EBFEDFE740F2551135
S3150800A73002480024FFF7E4FE204670BDA84300083F
S3150800A7402DE9F04385B0894601921F460446002844
S3150800A75000F08B80B9F1000F00F09080022F5DD0D9
S3150800A76000F0A6FF10B9019B002B78D10026B04651
S3150800A77025E001F0D5FA00F0C5FC01F0B1FA636CEA
S3150800A780013308BFC4F84480A36C013308BFC4F87A
S3150800A790488001F0C5FA01A902A800F02DFF00289B
S3150800A7A04BD101F09DFAA26BE36B9A4217D001F0E8
S3150800A7B0B7FA2046FFF71AFF00F072FD012601F0EE
S3150800A7C08FFAA26BE36B9A421AD3022F18D0019D17
S3150800A7D06DB3002ECDD102A800F0F8FEC9E701F04E
S3150800A7E09FFA019904F1100000F03AFE2046FFF79F
S3150800A7F0FDFE00F055FD0028E0D101F04DFADDE739
S3150800A8003A4649462046FFF7A3FE636AF3B918BBE2
S3150800A81001F086FA012005B0BDE8F083E36B012B51
S3150800A8209ED040F23F211A48FFF76AFE98E701F0EA
S3150800A83077FA284605B0BDE8F0832046FFF7D6FE2E
S3150800A84000F02EFD002005B0BDE8F08304F12400D9
S3150800A85000F078FE0128DBD101F01EFAD8E740F2B5
S3150800A86042210B48FFF74CFE80E740F23D2108489D
S3150800A870FFF746FEB9F1000F7FF470AF236C002B8B
S3150800A8803FF46CAF40F23E210148FFF739FE65E719
S3150800A890A84300082DE9F0410D4690461E46044699
S3150800A8A000283CD0002D41D0022E0FD001F02AFB03
S3150800A8B001F0FEF9A26BE36B9A42074614D3002413
S3150800A8C0384601F029FA2046BDE8F081E36B012BF2
S3150800A8D004D04FF47F712048FFF712FE01F012FBF7
S3150800A8E001F0E6F9A36B0746324629462046FFF7EC
S3150800A8F02FFEA36C013309D0A36C0133A364384639
S3150800A900012401F009FA2046BDE8F081636AB3B96B
S3150800A9103846012401F000FA2046BDE8F08140F2ED
S3150800A920FA310D48FFF7ECFD002DBDD1236C002B45
S3150800A930BAD040F2FB310848FFF7E2FDB4E704F16C
S3150800A940240000F0FFFD0028E2D00124B8F1000F32
S3150800A950B6D0C8F80040B3E7A84300082DE9F0438D
S3150800A96085B08846019299460446002800F08F80F3
S3150800A970B8F1000F00F0948000F09AFE10B9019B20
S3150800A980002B7ED10026374607E001F0C9F920469C
S3150800A990FFF72CFE00F084FC012601F0A1F9A36B59
S3150800A9A0002B3DD1019D002D53D06EB301F0B8F9AF
S3150800A9B000F0A8FB01F094F9636C013308BF6764E3
S3150800A9C0A36C013308BFA76401F0AAF901A902A87C
S3150800A9D000F012FE002842D101F082F9A36B002B89
S3150800A9E0D3D101F09DF9236893B1019904F12400AC
S3150800A9F000F036FD2046FFF7F9FD00F051FC00286F
S3150800AA00CAD101F049F9C7E702A800F0DFFDCDE792
S3150800AA1001F066F9606800F05BFE01F081F9E4E791
S3150800AA2041462046E568FFF7CFFDB9F1000F1FD173
S3150800AA30A36B2268013BA363002A42D02369D3B1E2
S3150800AA4004F1100000F07EFD012814D101F024F96C
S3150800AA5011E001F065F9284605B0BDE8F083204607
S3150800AA60FFF7C4FD00F01CFC002005B0BDE8F0832C
S3150800AA70636AE560F3B901F053F9012005B0BDE852
S3150800AA80F08340F235511148FFF73AFD7AE740F274
S3150800AA9031510E48FFF734FDB8F1000F7FF46CAF63
S3150800AAA0236C002B3FF468AF40F232510748FFF79A
S3150800AAB027FD61E704F1240000F044FD0028DAD000
S3150800AAC0C4E700F0A9FE6060B8E700BFA843000825
S3150800AAD0F8B50D461746044600B335B301F012FA29
S3150800AAE001F0E6F80646A06B28B90446304601F0A0
S3150800AAF013F92046F8BD29462046FFF765FDA36BE6
S3150800AB00013BA363636C013318D0636C0133636440
S3150800AB103046012401F000F92046F8BD40F2EB5119
S3150800AB200E48FFF7EDFC002DD8D1236C002BD5D0AD
S3150800AB3040F2EC510948FFF7E3FCCFE72369002B05
S3150800AB40E6D004F1100000F0FDFC0028E0D0002F4C
S3150800AB50DED0012038600446C8E700BFA8430008D5
S3150800AB6010B5044608B1A06B10BD4FF4D361024876
S3150800AB70FFF7C6FCA06B10BDA843000870B50446D5
S3150800AB800D46164601F0ACF8636C013304BF00238A
S3150800AB906364A36C013304BF0023A36401F0C0F807
S3150800ABA0A36B2BB93246294604F1240000F090FC29
S3150800ABB02046BDE87040FFF719BD00BF08B5034C35
S3150800ABC02368012BFDD901F067F8F9E77004002026
S3150800ABD010B5044668B10A4B62699A4201D0002052
S3150800ABE010BDA06A074B9842F9D0B0FA80F0400928
S3150800ABF010BD40F23C510448FFF782FCEBE700BF6A
S3150800AC00CC05002090050020E44300080D4B0E4AB1
S3150800AC1019681268486090420DD30C4A10B504466C
S3150800AC2010681968043103F03BFB094B1A68944213
S3150800AC3038BF1C6010BD074A10681968043103F054
S3150800AC402FBB00BFAC050020A80500204C0400203F
S3150800AC50B405002068040020234B2DE9F0410022AA
S3150800AC60224D234E1A602A6833689A4239D02A68D8
S3150800AC702B6812681B6B1D499A4222D91D4B1C680A
S3150800AC80B4FA84F4E4B2C4F11F044FEA840808EB6A
S3150800AC900403194F57F82330CBB14444A4003A199A
S3150800ACA0083453685B6853603C44A34204BF5B683E
S3150800ACB05360DB682B602A6833689A420DD0BDE87A
S3150800ACC0F08108680968343102F0ACFFD6E740F62F
S3150800ACD09E010A48FFF714FCDFE7BDE8F041FFF7DD
S3150800ACE023BCFFF72FFCC2E7E4050020AC050020D3
S3150800ACF0A4050020E005002070040020E4430008B5
S3150800AD002DE9F84F0A9D0C9C8A46914698460646B8
S3150800AD10002800F0A5800D2D00F28F802746002C14
S3150800AD2000F0A480542001F047F90446002800F0FA
S3150800AD30A9804FEA89094A460763A521384605F0DE
S3150800AD40A7FB236BA9F10409994429F007090AF11D
S3150800AD50FF330AF10F0104F1330213F8010F02F869
S3150800AD60010F187808B18B42F7D10D2D4FF0000767
S3150800AD70AB4604F1040A28BF4FF00D0B504684F881
S3150800AD804370A764C4F82CB0C4F844B003F074FA4E
S3150800AD9004F1180003F070FACBF10E03A361E7641F
S3150800ADA0246184F85070646242463146484600F091
S3150800ADB04DFF0B9B206003B11C6000F091FF454AD4
S3150800ADC0454E1368013313603368002B40D0DFF813
S3150800ADD02881D8F800304BB3404F4148E26A0368EF
S3150800ADE0013304F1340103602046FFF73BFBDFF82B
S3150800ADF00CE1E36ADEF80020012404FA03FC03EB05
S3150800AE00830051464CEA020307EB8000CEF8003077
S3150800AE1003F036FA00F084FFD8F800301BB1336827
S3150800AE20DB6A9D420FD82046BDE8F88F33682B4F62
S3150800AE30DB6A9D4228BF3460CFE74FF40171294889
S3150800AE40FFF75EFB6AE700F027FF2046BDE8F88FAC
S3150800AE5034601368214F012B18D0DFF89C80BCE7BB
S3150800AE6040F203211F48FFF74BFB54E74FEA8900DE
S3150800AE7001F0A2F8074600287FF454AF4FF0FF30E0
S3150800AE80BDE8F88F384601F035F9F7E7B84607F513
S3150800AE908C79404608F1140803F0E2F9C845F8D160
S3150800AEA0DFF85CB0DFF85C90DFF84C80584603F0BA
S3150800AEB0D7F9484603F0D4F90B4803F0D1F90B4803
S3150800AEC003F0CEF90A4A0B4BC2F800B0C3F800905B
S3150800AED083E700BF8C050020AC0500207004002025
S3150800AEE0B0050020E443000890050020CC050020AA
S3150800AEF04C0400206804002050040020E0050020CF
S3150800AF0054040020B8050020F8B50446344E00F075
S3150800AF10E7FE002C49D0251D284603F0DBF930B999
S3150800AF20E36A304A03EB830152F82120A2B1A36AEF
S3150800AF301BB104F1180003F0CDF92B4F294638460A
S3150800AF4003F09EF900F0ECFE3368254A9C42274B35
S3150800AF501B6822D04BB9F8BD25480121026801FAC1
S3150800AF6003F322EA03030360E1E700F0B9FE214B8D
S3150800AF701A6812683AB9204B4FF0FF321A60BDE8DA
S3150800AF80F84000F0CDBE1A681B4BD268D2685268EA
S3150800AF901A60BDE8F84000F0C3BE43B1174B1B6802
S3150800AFA08BB9BDE8F84000F077BE3468B3E71449BA
S3150800AFB038680968884210D0104B1B684BB1114B92
S3150800AFC001221A60F8BD40F204510F48FFF798FABB
S3150800AFD0E7E7BDE8F840FFF73FBE1360F8BD00BFDE
S3150800AFE0AC05002070040020CC0500205004002089
S3150800AFF0E00500204C040020B40500208805002048
S3150800B0008C050020E4050020E443000878B32DE908
S3150800B010F041194D2B6898420CD0044600F060FEAA
S3150800B0202046FFF7D5FD0128064605D0BDE8F041C4
S3150800B03000F076BEBDE8F08104F104080F4F4046E3
S3150800B04003F048F9E36A3A680D489E4003EB830328
S3150800B050164300EB830041463E6003F011F92B6866
S3150800B060E26ADB6A9A42E1D300F016FEDEE740F2B6
S3150800B07066510448FFF744BAAC050020E0050020F5
S3150800B08070040020E443000830B585B00024164A51
S3150800B090019203940294009423468022134914488B
S3150800B0A0FFF72EFE01280BD005460DB105B030BDC1
S3150800B0B0104840F2276105B0BDE83040FFF720BAD6
S3150800B0C000F008FC01280546EFD100F0F1FD0A4919
S3150800B0D00A4A0B4B4FF0FF30086015601C6005B03C
S3150800B0E0BDE8304000F09ABEA405002020440008C0
S3150800B0F0BDAB0008E4430008B40500205004002056
S3150800B100A8050020024A136801331360704700BF80
S3150800B11088050020014B1868704700BFA805002065
S3150800B1202DE9F04F524B1B6883B0002B40F083800B
S3150800B130504B1A6801321A601F68002F59D04E4BBF
S3150800B1400193019B1B689F426FD34C4EDFF84881E1
S3150800B150DFF848914A4D00242CE0484B1B68DB6811
S3150800B160D3F80CA0DAF804200AF1040B97425846E3
S3150800B17074D303F0AFF8DAF828200AF118000AB1F8
S3150800B18003F0A8F8DAF82C002A68012303FA00FE6F
S3150800B19000EB80004EEA0202594608EB80002A605E
S3150800B1A003F06EF8D9F80010DAF82C20CB6A9A4228
S3150800B1B028BF012433681B68002BCED1019A4FF0B3
S3150800B1C0FF331360D9F800302E4ADB6A126803EBA6
S3150800B1D0830358F82330022B28BF0124002A32D0D3
S3150800B1E0294B1B68002B18BF0124204603B0BDE875
S3150800B1F0F08F224E33681B68002B32D1234B3168FF
S3150800B200234A18683060196013681C4901331360B3
S3150800B21033681B68D3B9184B01931A464FF0FF33AE
S3150800B2201360019B1B689F428FD2DFF86C80DFF8A2
S3150800B2306C900024C6E7134A136801331360002490
S3150800B240FFF74AF9CCE7FFF747F9C9E70B680A4A57
S3150800B250DB680192DB685B68136072E7019B1A6022
S3150800B260B0E74FF4F0610B48FFF74AF9C6E700BFAD
S3150800B27088050020A8050020B40500204C040020FD
S3150800B280E00500206C040020E40500206804002086
S3150800B29048040020E443000870040020AC050020A0
S3150800B2A02DE9F84F314C2368002B55D000F018FDD6
S3150800B2B02368013B23602368002B47D12C4B1B686E
S3150800B2C0002B43D0DFF8BCB02A4FDFF8BC90DFF87C
S3150800B2D0BC80DA4620E0DAF80C20D468251D04F193
S3150800B2E0180002F0F7FF284602F0F4FFE06A3A6811
S3150800B2F006FA00FE00EB80004EEA0202294609EB38
S3150800B30080003A6002F0BCFFD8F80020E16AD26AF1
S3150800B310914224BF184B1E60DBF800200126002A44
S3150800B320D9D1164C23686BB123685BB10125FFF7A9
S3150800B330F7FE08B1104B1D602368013B23602368A4
S3150800B340002BF4D10C4B1C68012C0BD0002400F008
S3150800B350E7FC2046BDE8F88F40F264610848FFF72D
S3150800B360CFF8A3E700F098FCF1E700BF88050020B6
S3150800B3708C050020E0050020E40500206C04002070
S3150800B380E44300089005002070040020AC05002066
S3150800B39070B50C460646002843D0002C32D0244D02
S3150800B3A02B68002B37D12A682249336801322A6074
S3150800B3B00A689A421C4406D2A34206D83460FFF7AC
S3150800B3C06FFFD8B170BDA34201D8A242F6D21A4D7A
S3150800B3D034602868043002F07DFF40B92B681749AD
S3150800B3E0D86A0A680123834022EA03030B602046D1
S3150800B3F0FFF70CFCFFF754FF0028E3D1BDE87040C7
S3150800B40000F04ABC0A4D0E4840F21631FFF778F8AC
S3150800B4102B68002BC7D040F217310948FFF770F8A0
S3150800B420C1E740F215310648FFF76AF8B5E700BFED
S3150800B43088050020A8050020AC050020E0050020AE
S3150800B440E4430008044B1B680BB9FFF705BC034B24
S3150800B45001221A60704700BF88050020E405002015
S3150800B46070B50E46054618B3144C2168284618319F
S3150800B47002F016FF2068043002F02CFF40B923685A
S3150800B4800F49D86A0A680123834022EA03030B603E
S3150800B490731C06D00B4B18683044BDE87040FFF7A4
S3150800B4A0B5BB216808480431BDE8704002F0E8BE23
S3150800B4B04FF40B610548FFF723F8D5E7AC050020E4
S3150800B4C0E0050020A8050020CC050020E44300087C
S3150800B4D0F8B50F461646054618B3154C2168284692
S3150800B4E0183102F0CDFE2068043002F0F3FE40B9B0
S3150800B4F023681049D86A0A680123834022EA0303AD
S3150800B5000B60012E06D00C4B18683844BDE8F8408D
S3150800B510FFF77CBB216809480431BDE8F84002F012
S3150800B520AFBE40F62F110648FEF7EAFFD5E700BF83
S3150800B530AC050020E0050020A8050020CC05002069
S3150800B540E4430008F8B5C368DC6854B304F1180589
S3150800B550284602F0BFFE164B1B68EBB9271D154E91
S3150800B560384602F0B7FEE36A3568134801229A4066
S3150800B57003EB83032A43394600EB8300326002F06B
S3150800B5807FFE0E4BE26A1B68DB6A9A4283BF0C4B4E
S3150800B590012018600020F8BD29460A4802F070FE0E
S3150800B5A0EFE740F68A110848FEF7AAFFCEE700BF84
S3150800B5B088050020E005002070040020AC05002066
S3150800B5C0E405002090050020E443000810B5044671
S3150800B5D030B1064A064B12681B6884E80C0010BD99
S3150800B5E040F6EA110348FEF78BFFF2E7480400200D
S3150800B5F0A8050020E4430008F8B50D46044618B32C
S3150800B6006DB300F06DFB2B6818485A1C016821D0F1
S3150800B610174E276832689742626801D091420ED267
S3150800B6208F1ABB420BD95B1A1344316802682B6028
S3150800B630002584E8060000F073FB2846F8BD0125BE
S3150800B64000F06EFB2846F8BD40F6F4110948FEF7EF
S3150800B65057FFD5E7002500F063FB2846F8BD40F6FE
S3150800B660F5110448FEF74CFFCBE700BFA8050020FC
S3150800B67048040020E4430008014B01221A60704781
S3150800B680E405002060B1016B0B78A52B0BD14B1C90
S3150800B690581A13F8012BA52AFAD0C0F38F00704761
S3150800B6A0024B1868EFE70020704700BFAC05002082
S3150800B6B0054B1B6833B1054B1B68002B0CBF0220DA
S3150800B6C0002070470120704750040020880500209C
S3150800B6D0002842D02DE9F041214CC36A2268D26A7B
S3150800B6E0934212D28269002A04DB2268D26AC2F126
S3150800B6F00E0282611B4D426903EB830305EB83034C
S3150800B7009A4204D02368DB6AC362BDE8F08100F17F
S3150800B71004080746404602F0DDFDF8B9FB6A124EFA
S3150800B72003EB830255F8222032B93268012101FA67
S3150800B73003F322EA0303336023683268D86AF8629F
S3150800B74001238340134300EB8000414605EB80004C
S3150800B7503360BDE8F04102F093BD7047024EEBE757
S3150800B760AC05002070040020E0050020002849D020
S3150800B770F8B5254B1B689842044604D040F67D511F
S3150800B7802248FEF7BDFEA36CEBB1E16A626C013B91
S3150800B7909142A36400D00BB10020F8BD271D38469E
S3150800B7A002F098FDB0B9E36A19481A4E03EB830212
S3150800B7B050F8222082B93268012101FA03F322EAFD
S3150800B7C00303336008E040F67F511048FEF798FE01
S3150800B7D0A36CDAE70E480F4E636C3268E362012504
S3150800B7E005FA03FCC3F10E0E03EB83034CEA0202CF
S3150800B7F000EB83003946C4F818E0326002F040FDD9
S3150800B8002846F8BD00207047AC050020E443000830
S3150800B81070040020E0050020044B1A681AB1196864
S3150800B8208A6C01328A641868704700BFAC0500202C
S3150800B830F8B5114C00F054FA25681DB1BDE8F8407A
S3150800B84000F06EBA0D4F0E4E384602F009FD30462E
S3150800B85002F006FD0B4A0C4B17600C212A460620FF
S3150800B8601E60FEF73FFF20600028E7D14FF43C71C9
S3150800B8700648FEF745FEE1E718060020EC0500201D
S3150800B88000060020E80500201C06002028440008C1
S3150800B890914208B50061416005D88169D21A8A4289
S3150800B8A00CD3012008BD9A4201D29942F9D2074B1E
S3150800B8B0011D186802F0F4FC002008BD044B011DA8
S3150800B8C0186802F0EDFC002008BD00BFE80500205E
S3150800B8D01C06002000B585B0FFF7AAFF0C4B1B68B5
S3150800B8E073B1002302228DE80C0003930293802291
S3150800B8F008490948FFF704FA10B105B05DF804FBDA
S3150800B900E4210648FEF7FCFD002005B05DF804FBBF
S3150800B910180600206444000861BA00082844000894
S3150800B9202DE9F0410D46B1B18046282017461E463E
S3150800B93000F042FB044658B1FFF77AFF069BC4F8AD
S3150800B9400080A561E76126626362201D02F094FC0F
S3150800B9502046BDE8F0814FF4867103482C46FEF771
S3150800B960CFFD2046BDE8F0812844000870B50D4695
S3150800B97086B0044610B3164E306870B1052D03958F
S3150800B980049205940BDCFFF793FE02280ED00023E1
S3150800B99030681A4603A9FEF7D3FE06B070BD1A46EC
S3150800B9A003A90023FEF776FF06B070BD30680A9A31
S3150800B9B0002303A9FEF7C4FE06B070BD40F21711B6
S3150800B9C004488DE80C00FEF79BFD9DE80C00D2E7C5
S3150800B9D018060020284400082DE9F0471D4D82B0BE
S3150800B9E04FF00008AA460DE0DB68DC681F6804F122
S3150800B9F00409484602F06EFC636A20469847E369E4
S3150800BA00012B0BD02B6813491A68002AECD1124A6D
S3150800BA1010680860136002B0BDE8F087A6693E4466
S3150800BA200023B74219463A46204607D26660246183
S3150800BA30DAF80000494602F033FCE3E7CDF8008067
S3150800BA40FFF794FF0028DDD140F2D2210348FEF724
S3150800BA5057FDD7E7E80500201C0600202844000803
S3150800BA602DE9F04F674DDFF8A481674CDFF8A4B1E4
S3150800BA7089B0A946D8F800301E68002E3FD0DB688A
S3150800BA801E68FFF73FFBFFF745FB2B688342074617
S3150800BA9046D88642C9F8000050D90022F11B206812
S3150800BAA0FFF76CF8FFF7FCFB002844D001270023BA
S3150800BAB01A4605A92068FEF751FF0028DAD0059B2B
S3150800BAC0002BF4DB079E7369301D0BB102F002FCF4
S3150800BAD0FFF720FB2B68984228D3059B2860092B83
S3150800BAE007FA03F2E3D812F4047A77D112F0C70FF3
S3150800BAF051D19306DBD5304600F0FCFAD6E7FFF7BE
S3150800BB0001FBFFF707FB2B689842074608D3DBF8CB
S3150800BB100030C9F800701A68B2FA82F25209BDE715
S3150800BB20FFF75AFF2F60FFF7BBFBBFE70390FFF74E
S3150800BB3053FF0398D1E700F0AFF8B7E7FFF7B0FB7C
S3150800BB40324B1B68DB68D3F80CA00AF1040002F03C
S3150800BB50C1FBDAF81C30012B04D0DAF82430504641
S3150800BB609847A3E7DAF818103A4631443346504660
S3150800BB70FFF78EFE0128F0D10023009332461946BE
S3150800BB805046FFF7F3FE0028E7D140F26911204836
S3150800BB90FEF7B6FCE1E7069BB16902461944304652
S3150800BBA0FFF776FE012881D1736A30469847F36914
S3150800BBB0012B7FF47BAFB369069ACDF800A01A442F
S3150800BBC0304653465146FFF7D1FE00287FF46EAF44
S3150800BBD040F276210E48FEF793FC67E70699B161B5
S3150800BBE0024629B1114430461346FFF751FE5DE778
S3150800BBF0039040F28D210648FEF782FCB169039A4C
S3150800BC00F0E700BF1406002018060020E80500200B
S3150800BC10284400081C06002006480068006880F3CF
S3150800BC20088862B661B6BFF34F8FBFF36F8F00DF28
S3150800BC3000BF000008ED00E0DFF80C00016841F4E1
S3150800BC40700101607047000088ED00E030B46FF0C5
S3150800BC5002034FF08075074C40F8045C40F80C4C22
S3150800BC6040F8081C40F8202C40F8243C30BC4438E6
S3150800BC70704700BFC1BC0008064B19680868B0E8E1
S3150800BC80F04F80F30988BFF36F8F4FF0000080F301
S3150800BC9011887047AC050020044B4FF080521A609B
S3150800BCA0BFF34F8FBFF36F8F704700BF04ED00E0FF
S3150800BCB0EFF311804FF0BF0181F311887047002020
S3150800BCC008B5054B1B68013303D0DE210348FEF790
S3150800BCD017FCFFF7EDFFFEE7600000206C44000844
S3150800BCE008B5FFF7E5FF094A13680133012B13600E
S3150800BCF000D008BD064B1B6813F0FF0FF9D04FF4B0
S3150800BD00C1710448BDE80840FEF7FABB6000002090
S3150800BD1004ED00E06C44000880F31188704700BF0A
S3150800BD2010B5094C206838B10138206000B110BD43
S3150800BD30BDE81040FFF7F0BF044840F28911FEF74E
S3150800BD40DFFB2068F0E700BF600000206C440008B5
S3150800BD50EFF30980BFF36F8F144B1A681EF0100FAC
S3150800BD6008BF20ED108A20E9F04F10604DF8043D19
S3150800BD704FF0BF0080F31188BFF34F8FBFF36F8F6B
S3150800BD80FFF760FB4FF0000080F3118808BC1968C4
S3150800BD900868B0E8F04F1EF0100F08BFB0EC108A24
S3150800BDA080F30988BFF36F8F704700BFAC0500208A
S3150800BDB008B5FFF77DFFFEF7A9FBFEF717FB0F4A4D
S3150800BDC0138801339BB2092B07D81380FEF710FBA3
S3150800BDD00020BDE80840FFF79FBF00231380FFF748
S3150800BDE09FF90028F2D0064B4FF080521A60FEF7F2
S3150800BDF0FFFA0020BDE80840FFF78EBF280600209E
S3150800BE0004ED00E00349044B40F2CF200722086006
S3150800BE101A60704714E000E010E000E010B52F4A01
S3150800BE202F4B12689A4282B04BD02C4A2D4B12687F
S3150800BE309A424CD02C4B2D4C1A782D48D2B2FF2161
S3150800BE40019219701B78DBB28DF803309DF8033028
S3150800BE509DF8031003F0BF0307220906237002604A
S3150800BE600ED5062200E00A469DF803305B00DBB2D9
S3150800BE708DF803309DF803301B0602F1FF31F2D42A
S3150800BE800199194C1B4B1202C9B202F4E062026016
S3150800BE9021701A6842F47F021A601A6842F07F42DB
S3150800BEA01A60FFF7AFFF144B00221A60FFF7C4FEB3
S3150800BEB0124A136843F040431360FFF7ADFEFFF7DD
S3150800BEC0FFFE4FF48A710E48FEF71AFBADE740F203
S3150800BED015110B48FEF714FBACE700BF00ED00E0B8
S3150800BEE071C20F4170C20F4100E400E02006002035
S3150800BEF02406002020ED00E06000002034EF00E07A
S3150800BF006C44000808B5EFF305830F2B05D90E49D5
S3150800BF100E4A5B5C12789A420FD80D4B0D4A1B6885
S3150800BF20126803F4E063934200D808BD4FF44271E7
S3150800BF300948BDE80840FEF7E3BA4FF43E710648E3
S3150800BF40FEF7DEFAE9E700BFF0E300E0200600208E
S3150800BF500CED00E0240600206C440008144A00E0BA
S3150800BF601A4613688342FBD310B4546811198842E1
S3150800BF70416809D04418A3420CD0904203605DF88A
S3150800BF80044B18BF10607047214410464418A3425A
S3150800BF905160F2D1074C2468A342EED018CB9042E8
S3150800BFA02144036041605DF8044B18BF1060704778
S3150800BFB034060020300600202DE9F84F0546FFF725
S3150800BFC0A1F845480368002B55D0DFF82481D8F836
S3150800BFD0009015EA090F47D1002D45D008356B07A3
S3150800BFE01CBF25F007050835002D3DD03B4F3E68A0
S3150800BFF0B54239D83A490C6803E0236823B121468B
S3150800C0001C4662689542F8D803689C422CD023687F
S3150800C01008680B60531B102B00F1080A0BD904EBB8
S3150800C020050B1BF0070F4AD1CBF80430584665605C
S3150800C030FFF794FF62682B490B68B61A9E4242EADC
S3150800C04009024FF000036260236038BF0E603E604D
S3150800C050FFF726F91AF0070F0AD0FE212248FEF745
S3150800C0604FFA5046BDE8F88FFFF71AF94FF0000A65
S3150800C0705046BDE8F88F1D494A072AD0CA1D22F046
S3150800C080070201F500539B1A11460B44083B23F09F
S3150800C0900703124E124A134FDFF8548003605C1AE6
S3150800C0A03460002682E842004FF000425E601E605F
S3150800C0B03C60C8F8002081E81800914689E7BE214F
S3150800C0C00948FEF71DFA6368D8F800903E685B1BBE
S3150800C0D0AAE74FF40053D8E7300600202C060020C4
S3150800C0E03406002040260020BC4400083C060020F8
S3150800C0F03C26002000283AD038B51D4D50F8043C9F
S3150800C1002A681342044610D050F8081CD9B140F2E8
S3150800C11013111848FEF7F4F92A6854F8043C134238
S3150800C12002D054F8081C71B138BD4FF48971114812
S3150800C130FEF7E6F954F8083C002BE8D12A6854F8CB
S3150800C140043C1342F0D023EA020344F8043CFEF709
S3150800C150D9FF094A54F8041C1368A4F108000B44D3
S3150800C1601360FFF7FBFEBDE83840FFF799B8704744
S3150800C1703C260020BC4400082C060020014B186809
S3150800C180704700BF2C06002040F0BF60024B40F409
S3150800C1900030D860704700BF00ED00E0C3785BB997
S3150800C1A0037818485A09203203F01F03012101FABF
S3150800C1B003F340F822307047134BF0B4D968477838
S3150800C1C0827804780F4EC943C1F30221C1F10405F0
S3150800C1D0EDB20F2307FA05F50B41EDB213402B43D9
S3150800C1E004F1604202F561421B01DBB282F80033BA
S3150800C1F00378012203F01F015B098A4046F82320D1
S3150800C200F0BC704700E100E000ED00E0B0F1A04F9F
S3150800C21008B516D0114B984213D0114B984204D04A
S3150800C22003F58073984200D008BD01214FF00050F5
S3150800C23000F016FD00214FF00050BDE8084000F060
S3150800C2400FBD01214FF0805000F00AFD00214FF08C
S3150800C2508050BDE8084000F003BD00BF0001005053
S3150800C2600004005001F10C02F0B41CCA0F684D68B6
S3150800C2708E683D4335432A43C66842EA03058A6900
S3150800C280074B2C43224333401343C3600A7F036B97
S3150800C290013A23F00F0313430363F0BC704700BF52
S3150800C2A007C0FFFD836819B943F00203836070472E
S3150800C2B043F0010383607047042A30B41FD802EBA9
S3150800C2C042025200056B1F24944025EA040401FA31
S3150800C2D002F222430263092922D8013942694469D4
S3150800C2E001EB410138228A4024EA0202426142698E
S3150800C2F0033103FA01F11143416130BC7047092A41
S3150800C3001ED8053A02EB42025200456B1F249440A0
S3150800C31025EA040401FA02F2224309294263DCD918
S3150800C3200A398269846901EB410107228A4024EAB5
S3150800C3300202826182698B401343836130BC704775
S3150800C3400E2A0DD80A3A02EB42025200856B1F24C8
S3150800C350944025EA040401FA02F222438263BAE70A
S3150800C3600F3A02EB42025200C56B1F24944025EA9D
S3150800C370040401FA02F22243C263ACE7836843F07D
S3150800C38004038360704700BFC36819B923F001032B
S3150800C390C360704743F00103C3607047C36823F066
S3150800C3A00203C360C3681943C160704703680B4240
S3150800C3B014BF01200020704708B501214FF0007016
S3150800C3C000F05CFC00214FF00070BDE8084000F06A
S3150800C3D055BC00BF30B482B000230193036823F034
S3150800C3E002030360036843F0010303604368DD0743
S3150800C3F00ED4019B6FF07F42934203D108E0019B64
S3150800C400934205D0019B013301934368DC07F6D5B7
S3150800C410436813F0010364D08B79012B03680CBFC2
S3150800C42043F0800323F080030360CB79012B036874
S3150800C4300CBF43F0400323F0400303600B7A012B43
S3150800C44003680CBF43F0200323F0200303604B7AF4
S3150800C450012B03680CBF43F0100323F0100303609D
S3150800C4608B7A012B03680CBF43F0080323F00803FB
S3150800C4700360CB7A012B03680CBF43F0040323F057
S3150800C48004030360CA788D780B794C7909881206FB
S3150800C49042EA857242EA034343EA04534A1E1343B7
S3150800C4A0C3610368002223F0010303600192436815
S3150800C4B0DA070ED5019B6FF07F42934203D108E05D
S3150800C4C0019B934205D0019B013301934368DB0727
S3150800C4D0F6D4406800F0010080F0010002B030BCDC
S3150800C4E07047184602B030BC704700BF3A4B827A94
S3150800C4F0D3F8001241F00101F0B4C3F8001201218B
S3150800C50001FA02F2D3F81C12D4432140C3F81C12D4
S3150800C510017BB1B9D3F80C52C78846882F49254004
S3150800C520C3F80C52857A483546EA074643F835601B
S3150800C530857A86880388ED00294443EA06434B60DA
S3150800C540017B012930D0C37A23493BBBD1F8043299
S3150800C5502340C1F804320389BBB91F49D1F8143204
S3150800C5601C40C1F81442437B012B05D11A49D1F866
S3150800C5701C321A43C1F81C22174AD2F8003223F09B
S3150800C5800103C2F80032F0BC7047012BEBD1124907
S3150800C590D1F814321343C1F81432E4E7D1F804325F
S3150800C5A01343C1F80432D6E70B490788D1F80C5271
S3150800C5B046880A4B1543C1F80C52857A483546EA2F
S3150800C5C0074641F83560857A8688C188ED002B4490
S3150800C5D041EA06415960B6E70064004040660040FB
S3150800C5E0002310B402210324012204714171028040
S3150800C5F08371C371037243728372C3728370C3708B
S3150800C6005DF8044B704700BF8368F0B404465801D0
S3150800C61005D4A3681A0143D50122104601E0002279
S3150800C62010461201A318D3F8805105F00105C3F886
S3150800C63080510D7A55B34E68D3F8807145EAC60520
S3150800C6404E7A3D433543C3F880518D7A05F00F0580
S3150800C6508D72D3F8845125F00F05C3F884518E7A6C
S3150800C660D3F884513543C3F884512244D1F80B409A
S3150800C670C2F88841D1F80F10C2F88C11D3F880217E
S3150800C68042F00102C3F88021F0BC70470F684D7A6A
S3150800C690D3F8806145EA47553543C3F88051D4E756
S3150800C6A0A368DB0002D502221046BAE70420F0BCD4
S3150800C6B0704700BF10B400EB0114D4F8B03103F092
S3150800C6C00403DBB21372CBBBD4F8B0315B0D136035
S3150800C6D0D4F8B03103F002035372D4F8B43103F03E
S3150800C6E00F039372D4F8B44100EB0113240AD474EF
S3150800C6F0D3F8B841D472D3F8B841240A1473D3F8DE
S3150800C700B841240C5473D3F8B841240E9473D3F863
S3150800C710BC41D473D3F8BC41240A1474D3F8BC4181
S3150800C720240C5474D3F8BC311B0E937459B10369A5
S3150800C7305DF8044B43F0200303617047D4F8B03129
S3150800C740DB085360C4E7C3685DF8044B43F0200375
S3150800C750C360704731B1012906BF006900F00300C4
S3150800C76000207047C06800F0030070478069C0F376
S3150800C7700740704743691AB923EA010141617047C6
S3150800C78019434161704700BF11F4700F07D08369E0
S3150800C790C3F313030B4214BF012000207047CB01DB
S3150800C7A007D54368C3F313030B4214BF01200020C7
S3150800C7B070470A0107D58368C3F313030B4214BFF6
S3150800C7C00120002070478B014CBFC3680369C3F37F
S3150800C7D013030B4214BF0120002070470A4B9942ED
S3150800C7E00CD08A01C1F3130306D44A0109D40A01FD
S3150800C7F04CBF836043607047C36070470023836102
S3150800C80070470361704700BF7000F03043690B4002
S3150800C8101ED0402967D00ED9B1F5006F5CD019D863
S3150800C820B1F5007F50D0B1F5806F37D0B1F5807F74
S3150800C83027D00020704704294AD018D910293DD09E
S3150800C840202937D00829F4D1C068C0F300107047F2
S3150800C85018467047B1F5803F24D0B1F5003F25D082
S3150800C860B1F5004FE5D14068C0F380007047012953
S3150800C8700BD00229DDD1C06810F0030018BF0120D3
S3150800C8807047806900F001007047806800F0013049
S3150800C89020F08070003018BF012070478069C0F30F
S3150800C8A0800070474068C0F3C00070474068C0F316
